{
  "contractName": "Exchange",
  "abi": [
    {
      "inputs": [
        {
          "internalType": "address",
          "name": "_token",
          "type": "address"
        }
      ],
      "stateMutability": "payable",
      "type": "constructor",
      "payable": true
    },
    {
      "anonymous": false,
      "inputs": [
        {
          "indexed": false,
          "internalType": "address",
          "name": "buyer",
          "type": "address"
        },
        {
          "indexed": false,
          "internalType": "uint256",
          "name": "amountOfEth",
          "type": "uint256"
        },
        {
          "indexed": false,
          "internalType": "uint256",
          "name": "amountOfTokens",
          "type": "uint256"
        }
      ],
      "name": "BuyTokens",
      "type": "event"
    },
    {
      "inputs": [],
      "name": "dexBalance",
      "outputs": [
        {
          "internalType": "uint256",
          "name": "",
          "type": "uint256"
        }
      ],
      "stateMutability": "view",
      "type": "function",
      "constant": true
    },
    {
      "inputs": [],
      "name": "tokenAddress",
      "outputs": [
        {
          "internalType": "address",
          "name": "",
          "type": "address"
        }
      ],
      "stateMutability": "view",
      "type": "function",
      "constant": true
    },
    {
      "inputs": [],
      "name": "tokensPerEth",
      "outputs": [
        {
          "internalType": "uint256",
          "name": "",
          "type": "uint256"
        }
      ],
      "stateMutability": "view",
      "type": "function",
      "constant": true
    },
    {
      "inputs": [],
      "name": "exchangeBalance",
      "outputs": [
        {
          "internalType": "uint256",
          "name": "",
          "type": "uint256"
        }
      ],
      "stateMutability": "view",
      "type": "function",
      "constant": true
    },
    {
      "inputs": [],
      "name": "buy",
      "outputs": [
        {
          "internalType": "uint256",
          "name": "tokenAmount",
          "type": "uint256"
        }
      ],
      "stateMutability": "payable",
      "type": "function",
      "payable": true
    },
    {
      "inputs": [
        {
          "internalType": "uint256",
          "name": "amount",
          "type": "uint256"
        }
      ],
      "name": "sell",
      "outputs": [],
      "stateMutability": "nonpayable",
      "type": "function"
    }
  ],
  "bytecode": "0x6080604052604051620011f1380380620011f1833981810160405281019062000029919062000192565b600034116200006f576040517f08c379a000000000000000000000000000000000000000000000000000000000815260040162000066906200024b565b60405180910390fd5b3460028190555080600160006101000a81548173ffffffffffffffffffffffffffffffffffffffff021916908373ffffffffffffffffffffffffffffffffffffffff1602179055506032600381905550600160009054906101000a900473ffffffffffffffffffffffffffffffffffffffff166000806101000a81548173ffffffffffffffffffffffffffffffffffffffff021916908373ffffffffffffffffffffffffffffffffffffffff160217905550506200026d565b600080fd5b600073ffffffffffffffffffffffffffffffffffffffff82169050919050565b60006200015a826200012d565b9050919050565b6200016c816200014d565b81146200017857600080fd5b50565b6000815190506200018c8162000161565b92915050565b600060208284031215620001ab57620001aa62000128565b5b6000620001bb848285016200017b565b91505092915050565b600082825260208201905092915050565b7f596f75206861766520746f206174206c65617374206465706f73697420736f6d60008201527f657468696e6720746f2073746172742061204445580000000000000000000000602082015250565b600062000233603583620001c4565b91506200024082620001d5565b604082019050919050565b60006020820190508181036000830152620002668162000224565b9050919050565b610f74806200027d6000396000f3fe6080604052600436106100555760003560e01c806305babda61461005a5780636cb98657146100855780639d76ea58146100b0578063a6f2ae3a146100db578063cbdd69b5146100f9578063e4849b3214610124575b600080fd5b34801561006657600080fd5b5061006f61014d565b60405161007c9190610763565b60405180910390f35b34801561009157600080fd5b5061009a610157565b6040516100a79190610763565b60405180910390f35b3480156100bc57600080fd5b506100c561015d565b6040516100d291906107bf565b60405180910390f35b6100e3610183565b6040516100f09190610763565b60405180910390f35b34801561010557600080fd5b5061010e610348565b60405161011b9190610763565b60405180910390f35b34801561013057600080fd5b5061014b6004803603810190610146919061080b565b61034e565b005b6000600254905090565b60025481565b600160009054906101000a900473ffffffffffffffffffffffffffffffffffffffff1681565b60008034116101c7576040517f08c379a00000000000000000000000000000000000000000000000000000000081526004016101be90610895565b60405180910390fd5b6000600354346101d791906108e4565b9050600047905081811015610221576040517f08c379a000000000000000000000000000000000000000000000000000000000815260040161021890610972565b60405180910390fd5b60008060009054906101000a900473ffffffffffffffffffffffffffffffffffffffff1673ffffffffffffffffffffffffffffffffffffffff1663a9059cbb33856040518363ffffffff1660e01b815260040161027f929190610992565b6020604051808303816000875af115801561029e573d6000803e3d6000fd5b505050506040513d601f19601f820116820180604052508101906102c291906109f3565b905080610304576040517f08c379a00000000000000000000000000000000000000000000000000000000081526004016102fb90610a6c565b60405180910390fd5b7f0a37b72bb67eee30e09084cf386f8a17817c57f620c3ab95fb25d6a20356ec7733348560405161033793929190610a8c565b60405180910390a182935050505090565b60035481565b60008111610391576040517f08c379a000000000000000000000000000000000000000000000000000000000815260040161038890610b35565b60405180910390fd5b60008060009054906101000a900473ffffffffffffffffffffffffffffffffffffffff1673ffffffffffffffffffffffffffffffffffffffff166370a08231336040518263ffffffff1660e01b81526004016103ed91906107bf565b602060405180830381865afa15801561040a573d6000803e3d6000fd5b505050506040513d601f19601f8201168201806040525081019061042e9190610b6a565b905081811015610473576040517f08c379a000000000000000000000000000000000000000000000000000000000815260040161046a90610be3565b60405180910390fd5b6000600354836104839190610c32565b90506000479050818110156104cd576040517f08c379a00000000000000000000000000000000000000000000000000000000081526004016104c490610caf565b60405180910390fd5b60008060009054906101000a900473ffffffffffffffffffffffffffffffffffffffff1673ffffffffffffffffffffffffffffffffffffffff1663dd62ed3e33306040518363ffffffff1660e01b815260040161052b929190610ccf565b602060405180830381865afa158015610548573d6000803e3d6000fd5b505050506040513d601f19601f8201168201806040525081019061056c9190610b6a565b9050848110156105b1576040517f08c379a00000000000000000000000000000000000000000000000000000000081526004016105a890610d44565b60405180910390fd5b60008060009054906101000a900473ffffffffffffffffffffffffffffffffffffffff1673ffffffffffffffffffffffffffffffffffffffff166323b872dd3330896040518463ffffffff1660e01b815260040161061193929190610dc3565b6020604051808303816000875af1158015610630573d6000803e3d6000fd5b505050506040513d601f19601f8201168201806040525081019061065491906109f3565b905080610696576040517f08c379a000000000000000000000000000000000000000000000000000000000815260040161068d90610e6c565b60405180910390fd5b3373ffffffffffffffffffffffffffffffffffffffff16846040516106ba90610ebd565b60006040518083038185875af1925050503d80600081146106f7576040519150601f19603f3d011682016040523d82523d6000602084013e6106fc565b606091505b50508091505080610742576040517f08c379a000000000000000000000000000000000000000000000000000000000815260040161073990610f1e565b60405180910390fd5b505050505050565b6000819050919050565b61075d8161074a565b82525050565b60006020820190506107786000830184610754565b92915050565b600073ffffffffffffffffffffffffffffffffffffffff82169050919050565b60006107a98261077e565b9050919050565b6107b98161079e565b82525050565b60006020820190506107d460008301846107b0565b92915050565b600080fd5b6107e88161074a565b81146107f357600080fd5b50565b600081359050610805816107df565b92915050565b600060208284031215610821576108206107da565b5b600061082f848285016107f6565b91505092915050565b600082825260208201905092915050565b7f596f75206e65656420746f2073656e6420736f6d652045746865720000000000600082015250565b600061087f601b83610838565b915061088a82610849565b602082019050919050565b600060208201905081810360008301526108ae81610872565b9050919050565b7f4e487b7100000000000000000000000000000000000000000000000000000000600052601160045260246000fd5b60006108ef8261074a565b91506108fa8361074a565b92508282026109088161074a565b9150828204841483151761091f5761091e6108b5565b5b5092915050565b7f4e6f7420656e6f75676820746f6b656e7320696e207468652072657365727665600082015250565b600061095c602083610838565b915061096782610926565b602082019050919050565b6000602082019050818103600083015261098b8161094f565b9050919050565b60006040820190506109a760008301856107b0565b6109b46020830184610754565b9392505050565b60008115159050919050565b6109d0816109bb565b81146109db57600080fd5b50565b6000815190506109ed816109c7565b92915050565b600060208284031215610a0957610a086107da565b5b6000610a17848285016109de565b91505092915050565b7f4661696c656420746f207472616e736665720000000000000000000000000000600082015250565b6000610a56601283610838565b9150610a6182610a20565b602082019050919050565b60006020820190508181036000830152610a8581610a49565b9050919050565b6000606082019050610aa160008301866107b0565b610aae6020830185610754565b610abb6040830184610754565b949350505050565b7f596f75206e65656420746f2073656c6c206174206c6561737420736f6d65207460008201527f6f6b656e73000000000000000000000000000000000000000000000000000000602082015250565b6000610b1f602583610838565b9150610b2a82610ac3565b604082019050919050565b60006020820190508181036000830152610b4e81610b12565b9050919050565b600081519050610b64816107df565b92915050565b600060208284031215610b8057610b7f6107da565b5b6000610b8e84828501610b55565b91505092915050565b7f596f75206861766520696e73756666696369656e7420746f6b656e7300000000600082015250565b6000610bcd601c83610838565b9150610bd882610b97565b602082019050919050565b60006020820190508181036000830152610bfc81610bc0565b9050919050565b7f4e487b7100000000000000000000000000000000000000000000000000000000600052601260045260246000fd5b6000610c3d8261074a565b9150610c488361074a565b925082610c5857610c57610c03565b5b828204905092915050565b7f45786368616e67652068617320696e73756666696369656e742066756e647300600082015250565b6000610c99601f83610838565b9150610ca482610c63565b602082019050919050565b60006020820190508181036000830152610cc881610c8c565b9050919050565b6000604082019050610ce460008301856107b0565b610cf160208301846107b0565b9392505050565b7f436865636b2074686520746f6b656e20616c6c6f77616e636500000000000000600082015250565b6000610d2e601983610838565b9150610d3982610cf8565b602082019050919050565b60006020820190508181036000830152610d5d81610d21565b9050919050565b6000819050919050565b6000610d89610d84610d7f8461077e565b610d64565b61077e565b9050919050565b6000610d9b82610d6e565b9050919050565b6000610dad82610d90565b9050919050565b610dbd81610da2565b82525050565b6000606082019050610dd860008301866107b0565b610de56020830185610db4565b610df26040830184610754565b949350505050565b7f4661696c656420746f207472616e736665722066726f6d2065786368616e676560008201527f20746f2075736572000000000000000000000000000000000000000000000000602082015250565b6000610e56602883610838565b9150610e6182610dfa565b604082019050919050565b60006020820190508181036000830152610e8581610e49565b9050919050565b600081905092915050565b50565b6000610ea7600083610e8c565b9150610eb282610e97565b600082019050919050565b6000610ec882610e9a565b9150819050919050565b7f4661696c656420746f2073656e642045746820746f2074686520757365720000600082015250565b6000610f08601e83610838565b9150610f1382610ed2565b602082019050919050565b60006020820190508181036000830152610f3781610efb565b905091905056fea2646970667358221220181dc3cd2bfece839fc641d118bb723e86c28a1c9e4074556ccb1033838f9a8164736f6c63430008110033",
  "immutableReferences": {},
  "source": "// SPDX-License-Identifier: MIT\r\npragma solidity ^0.8.11;\r\nimport \"./Token.sol\";\r\n\r\ncontract Exchange {\r\n   Token token;\r\n   address public tokenAddress;\r\n   uint256 public dexBalance;\r\n   uint256 public tokensPerEth;\r\n   event BuyTokens(address buyer, uint256 amountOfEth, uint256 amountOfTokens);\r\n   \r\n   constructor(address _token) payable {\r\n      require(msg.value > 0 , \"You have to at least deposit something to start a DEX\");\r\n      dexBalance = msg.value;\r\n      tokenAddress = _token;\r\n      tokensPerEth = 50;\r\n      token = Token(address(tokenAddress));\r\n   }\r\n\r\n   function exchangeBalance() public view returns(uint256) {\r\n      return dexBalance;\r\n   }\r\n\r\n   function buy() public payable returns (uint256 tokenAmount ) {\r\n      require(msg.value > 0, \"You need to send some Ether\");\r\n      uint256 amountTobuy = msg.value * tokensPerEth;\r\n\r\n      uint256 exchangeBal = address(this).balance;\r\n      require(exchangeBal >= amountTobuy , \"Not enough tokens in the reserve\");\r\n\r\n      (bool bought) = token.transfer(msg.sender, amountTobuy);\r\n      require(bought , \"Failed to transfer\");\r\n\r\n      emit BuyTokens(msg.sender , msg.value , amountTobuy);\r\n      return amountTobuy;\r\n   }\r\n\r\n\r\n   function sell(uint256 amount) public {\r\n      require(amount > 0, \"You need to sell at least some tokens\");\r\n\r\n      uint256 userBalance = token.balanceOf(msg.sender);\r\n      require(userBalance >= amount, \"You have insufficient tokens\");\r\n\r\n      uint256 amountOfEthToTransfer = amount / tokensPerEth;\r\n      uint256 ownerEthBalance = address(this).balance;\r\n      require(ownerEthBalance >= amountOfEthToTransfer, \"Exchange has insufficient funds\");\r\n\r\n      uint256 approvedAmt = token.allowance(msg.sender, address(this));\r\n      require(approvedAmt >= amount, \"Check the token allowance\");\r\n      (bool transfer) = token.transferFrom(msg.sender, payable(address(this)), amount);\r\n      require(transfer , \"Failed to transfer from exchange to user\");\r\n\r\n      (transfer,) = msg.sender.call{value: amountOfEthToTransfer}(\"\");\r\n      require(transfer, \"Failed to send Eth to the user\");\r\n   }\r\n}",
  "sourcePath": "E:\\University\\Season 7\\Blockchain and Cryptocurrency\\Project\\back-end\\contracts\\Exchange.sol",
  "compiler": {
    "name": "solc",
    "version": "0.8.17+commit.8df45f5f.Emscripten.clang"
  },
  "schemaVersion": "3.4.11",
  "updatedAt": "2022-12-14T18:03:31.843Z",
  "networkType": "ethereum",
  "devdoc": {
    "kind": "dev",
    "methods": {},
    "version": 1
  },
  "userdoc": {
    "kind": "user",
    "methods": {},
    "version": 1
  }
}