{
  "contractName": "Factory",
  "abi": [
    {
      "inputs": [
        {
          "internalType": "uint256",
          "name": "",
          "type": "uint256"
        }
      ],
      "name": "list_tokens",
      "outputs": [
        {
          "internalType": "contract Token",
          "name": "",
          "type": "address"
        }
      ],
      "stateMutability": "view",
      "type": "function"
    },
    {
      "inputs": [
        {
          "internalType": "uint256",
          "name": "",
          "type": "uint256"
        }
      ],
      "name": "token_exchanges",
      "outputs": [
        {
          "internalType": "contract Exchange",
          "name": "",
          "type": "address"
        }
      ],
      "stateMutability": "view",
      "type": "function"
    },
    {
      "inputs": [
        {
          "internalType": "string",
          "name": "_name",
          "type": "string"
        },
        {
          "internalType": "string",
          "name": "_symbol",
          "type": "string"
        },
        {
          "internalType": "uint256",
          "name": "_total",
          "type": "uint256"
        }
      ],
      "name": "createToken",
      "outputs": [],
      "stateMutability": "nonpayable",
      "type": "function"
    },
    {
      "inputs": [
        {
          "internalType": "address",
          "name": "_token",
          "type": "address"
        }
      ],
      "name": "createExchange",
      "outputs": [],
      "stateMutability": "nonpayable",
      "type": "function"
    }
  ],
  "bytecode": "0x608060405234801561001057600080fd5b50613047806100206000396000f3fe60806040523480156200001157600080fd5b5060043610620000525760003560e01c80631648f38e14620000575780635b06053014620000775780635d2d98c81462000097578063e90744e214620000cd575b600080fd5b6200007560048036038101906200006f91906200041d565b62000103565b005b6200009560048036038101906200008f9190620005ec565b62000204565b005b620000b56004803603810190620000af919062000686565b62000308565b604051620000c4919062000723565b60405180910390f35b620000eb6004803603810190620000e5919062000686565b62000348565b604051620000fa919062000765565b60405180910390f35b80604051620001129062000388565b6200011e919062000793565b604051809103906000f0801580156200013b573d6000803e3d6000fd5b50600160006101000a81548173ffffffffffffffffffffffffffffffffffffffff021916908373ffffffffffffffffffffffffffffffffffffffff1602179055506003600160009054906101000a900473ffffffffffffffffffffffffffffffffffffffff169080600181540180825580915050600190039060005260206000200160009091909190916101000a81548173ffffffffffffffffffffffffffffffffffffffff021916908373ffffffffffffffffffffffffffffffffffffffff16021790555050565b828282604051620002159062000396565b62000223939291906200084a565b604051809103906000f08015801562000240573d6000803e3d6000fd5b506000806101000a81548173ffffffffffffffffffffffffffffffffffffffff021916908373ffffffffffffffffffffffffffffffffffffffff160217905550600260008054906101000a900473ffffffffffffffffffffffffffffffffffffffff169080600181540180825580915050600190039060005260206000200160009091909190916101000a81548173ffffffffffffffffffffffffffffffffffffffff021916908373ffffffffffffffffffffffffffffffffffffffff160217905550505050565b600381815481106200031957600080fd5b906000526020600020016000915054906101000a900473ffffffffffffffffffffffffffffffffffffffff1681565b600281815481106200035957600080fd5b906000526020600020016000915054906101000a900473ffffffffffffffffffffffffffffffffffffffff1681565b6111f1806200089683390190565b61158b8062001a8783390190565b6000604051905090565b600080fd5b600080fd5b600073ffffffffffffffffffffffffffffffffffffffff82169050919050565b6000620003e582620003b8565b9050919050565b620003f781620003d8565b81146200040357600080fd5b50565b6000813590506200041781620003ec565b92915050565b600060208284031215620004365762000435620003ae565b5b6000620004468482850162000406565b91505092915050565b600080fd5b600080fd5b6000601f19601f8301169050919050565b7f4e487b7100000000000000000000000000000000000000000000000000000000600052604160045260246000fd5b620004a48262000459565b810181811067ffffffffffffffff82111715620004c657620004c56200046a565b5b80604052505050565b6000620004db620003a4565b9050620004e9828262000499565b919050565b600067ffffffffffffffff8211156200050c576200050b6200046a565b5b620005178262000459565b9050602081019050919050565b82818337600083830152505050565b60006200054a6200054484620004ee565b620004cf565b90508281526020810184848401111562000569576200056862000454565b5b6200057684828562000524565b509392505050565b600082601f8301126200059657620005956200044f565b5b8135620005a884826020860162000533565b91505092915050565b6000819050919050565b620005c681620005b1565b8114620005d257600080fd5b50565b600081359050620005e681620005bb565b92915050565b600080600060608486031215620006085762000607620003ae565b5b600084013567ffffffffffffffff811115620006295762000628620003b3565b5b62000637868287016200057e565b935050602084013567ffffffffffffffff8111156200065b576200065a620003b3565b5b62000669868287016200057e565b92505060406200067c86828701620005d5565b9150509250925092565b6000602082840312156200069f576200069e620003ae565b5b6000620006af84828501620005d5565b91505092915050565b6000819050919050565b6000620006e3620006dd620006d784620003b8565b620006b8565b620003b8565b9050919050565b6000620006f782620006c2565b9050919050565b60006200070b82620006ea565b9050919050565b6200071d81620006fe565b82525050565b60006020820190506200073a600083018462000712565b92915050565b60006200074d82620006ea565b9050919050565b6200075f8162000740565b82525050565b60006020820190506200077c600083018462000754565b92915050565b6200078d81620003d8565b82525050565b6000602082019050620007aa600083018462000782565b92915050565b600081519050919050565b600082825260208201905092915050565b60005b83811015620007ec578082015181840152602081019050620007cf565b60008484015250505050565b60006200080582620007b0565b620008118185620007bb565b935062000823818560208601620007cc565b6200082e8162000459565b840191505092915050565b6200084481620005b1565b82525050565b60006060820190508181036000830152620008668186620007f8565b905081810360208301526200087c8185620007f8565b90506200088d604083018462000839565b94935050505056fe6080604052604051620011f1380380620011f1833981810160405281019062000029919062000192565b600034116200006f576040517f08c379a000000000000000000000000000000000000000000000000000000000815260040162000066906200024b565b60405180910390fd5b3460028190555080600160006101000a81548173ffffffffffffffffffffffffffffffffffffffff021916908373ffffffffffffffffffffffffffffffffffffffff1602179055506032600381905550600160009054906101000a900473ffffffffffffffffffffffffffffffffffffffff166000806101000a81548173ffffffffffffffffffffffffffffffffffffffff021916908373ffffffffffffffffffffffffffffffffffffffff160217905550506200026d565b600080fd5b600073ffffffffffffffffffffffffffffffffffffffff82169050919050565b60006200015a826200012d565b9050919050565b6200016c816200014d565b81146200017857600080fd5b50565b6000815190506200018c8162000161565b92915050565b600060208284031215620001ab57620001aa62000128565b5b6000620001bb848285016200017b565b91505092915050565b600082825260208201905092915050565b7f596f75206861766520746f206174206c65617374206465706f73697420736f6d60008201527f657468696e6720746f2073746172742061204445580000000000000000000000602082015250565b600062000233603583620001c4565b91506200024082620001d5565b604082019050919050565b60006020820190508181036000830152620002668162000224565b9050919050565b610f74806200027d6000396000f3fe6080604052600436106100555760003560e01c806305babda61461005a5780636cb98657146100855780639d76ea58146100b0578063a6f2ae3a146100db578063cbdd69b5146100f9578063e4849b3214610124575b600080fd5b34801561006657600080fd5b5061006f61014d565b60405161007c9190610763565b60405180910390f35b34801561009157600080fd5b5061009a610157565b6040516100a79190610763565b60405180910390f35b3480156100bc57600080fd5b506100c561015d565b6040516100d291906107bf565b60405180910390f35b6100e3610183565b6040516100f09190610763565b60405180910390f35b34801561010557600080fd5b5061010e610348565b60405161011b9190610763565b60405180910390f35b34801561013057600080fd5b5061014b6004803603810190610146919061080b565b61034e565b005b6000600254905090565b60025481565b600160009054906101000a900473ffffffffffffffffffffffffffffffffffffffff1681565b60008034116101c7576040517f08c379a00000000000000000000000000000000000000000000000000000000081526004016101be90610895565b60405180910390fd5b6000600354346101d791906108e4565b9050600047905081811015610221576040517f08c379a000000000000000000000000000000000000000000000000000000000815260040161021890610972565b60405180910390fd5b60008060009054906101000a900473ffffffffffffffffffffffffffffffffffffffff1673ffffffffffffffffffffffffffffffffffffffff1663a9059cbb33856040518363ffffffff1660e01b815260040161027f929190610992565b6020604051808303816000875af115801561029e573d6000803e3d6000fd5b505050506040513d601f19601f820116820180604052508101906102c291906109f3565b905080610304576040517f08c379a00000000000000000000000000000000000000000000000000000000081526004016102fb90610a6c565b60405180910390fd5b7f0a37b72bb67eee30e09084cf386f8a17817c57f620c3ab95fb25d6a20356ec7733348560405161033793929190610a8c565b60405180910390a182935050505090565b60035481565b60008111610391576040517f08c379a000000000000000000000000000000000000000000000000000000000815260040161038890610b35565b60405180910390fd5b60008060009054906101000a900473ffffffffffffffffffffffffffffffffffffffff1673ffffffffffffffffffffffffffffffffffffffff166370a08231336040518263ffffffff1660e01b81526004016103ed91906107bf565b602060405180830381865afa15801561040a573d6000803e3d6000fd5b505050506040513d601f19601f8201168201806040525081019061042e9190610b6a565b905081811015610473576040517f08c379a000000000000000000000000000000000000000000000000000000000815260040161046a90610be3565b60405180910390fd5b6000600354836104839190610c32565b90506000479050818110156104cd576040517f08c379a00000000000000000000000000000000000000000000000000000000081526004016104c490610caf565b60405180910390fd5b60008060009054906101000a900473ffffffffffffffffffffffffffffffffffffffff1673ffffffffffffffffffffffffffffffffffffffff1663dd62ed3e33306040518363ffffffff1660e01b815260040161052b929190610ccf565b602060405180830381865afa158015610548573d6000803e3d6000fd5b505050506040513d601f19601f8201168201806040525081019061056c9190610b6a565b9050848110156105b1576040517f08c379a00000000000000000000000000000000000000000000000000000000081526004016105a890610d44565b60405180910390fd5b60008060009054906101000a900473ffffffffffffffffffffffffffffffffffffffff1673ffffffffffffffffffffffffffffffffffffffff166323b872dd3330896040518463ffffffff1660e01b815260040161061193929190610dc3565b6020604051808303816000875af1158015610630573d6000803e3d6000fd5b505050506040513d601f19601f8201168201806040525081019061065491906109f3565b905080610696576040517f08c379a000000000000000000000000000000000000000000000000000000000815260040161068d90610e6c565b60405180910390fd5b3373ffffffffffffffffffffffffffffffffffffffff16846040516106ba90610ebd565b60006040518083038185875af1925050503d80600081146106f7576040519150601f19603f3d011682016040523d82523d6000602084013e6106fc565b606091505b50508091505080610742576040517f08c379a000000000000000000000000000000000000000000000000000000000815260040161073990610f1e565b60405180910390fd5b505050505050565b6000819050919050565b61075d8161074a565b82525050565b60006020820190506107786000830184610754565b92915050565b600073ffffffffffffffffffffffffffffffffffffffff82169050919050565b60006107a98261077e565b9050919050565b6107b98161079e565b82525050565b60006020820190506107d460008301846107b0565b92915050565b600080fd5b6107e88161074a565b81146107f357600080fd5b50565b600081359050610805816107df565b92915050565b600060208284031215610821576108206107da565b5b600061082f848285016107f6565b91505092915050565b600082825260208201905092915050565b7f596f75206e65656420746f2073656e6420736f6d652045746865720000000000600082015250565b600061087f601b83610838565b915061088a82610849565b602082019050919050565b600060208201905081810360008301526108ae81610872565b9050919050565b7f4e487b7100000000000000000000000000000000000000000000000000000000600052601160045260246000fd5b60006108ef8261074a565b91506108fa8361074a565b92508282026109088161074a565b9150828204841483151761091f5761091e6108b5565b5b5092915050565b7f4e6f7420656e6f75676820746f6b656e7320696e207468652072657365727665600082015250565b600061095c602083610838565b915061096782610926565b602082019050919050565b6000602082019050818103600083015261098b8161094f565b9050919050565b60006040820190506109a760008301856107b0565b6109b46020830184610754565b9392505050565b60008115159050919050565b6109d0816109bb565b81146109db57600080fd5b50565b6000815190506109ed816109c7565b92915050565b600060208284031215610a0957610a086107da565b5b6000610a17848285016109de565b91505092915050565b7f4661696c656420746f207472616e736665720000000000000000000000000000600082015250565b6000610a56601283610838565b9150610a6182610a20565b602082019050919050565b60006020820190508181036000830152610a8581610a49565b9050919050565b6000606082019050610aa160008301866107b0565b610aae6020830185610754565b610abb6040830184610754565b949350505050565b7f596f75206e65656420746f2073656c6c206174206c6561737420736f6d65207460008201527f6f6b656e73000000000000000000000000000000000000000000000000000000602082015250565b6000610b1f602583610838565b9150610b2a82610ac3565b604082019050919050565b60006020820190508181036000830152610b4e81610b12565b9050919050565b600081519050610b64816107df565b92915050565b600060208284031215610b8057610b7f6107da565b5b6000610b8e84828501610b55565b91505092915050565b7f596f75206861766520696e73756666696369656e7420746f6b656e7300000000600082015250565b6000610bcd601c83610838565b9150610bd882610b97565b602082019050919050565b60006020820190508181036000830152610bfc81610bc0565b9050919050565b7f4e487b7100000000000000000000000000000000000000000000000000000000600052601260045260246000fd5b6000610c3d8261074a565b9150610c488361074a565b925082610c5857610c57610c03565b5b828204905092915050565b7f45786368616e67652068617320696e73756666696369656e742066756e647300600082015250565b6000610c99601f83610838565b9150610ca482610c63565b602082019050919050565b60006020820190508181036000830152610cc881610c8c565b9050919050565b6000604082019050610ce460008301856107b0565b610cf160208301846107b0565b9392505050565b7f436865636b2074686520746f6b656e20616c6c6f77616e636500000000000000600082015250565b6000610d2e601983610838565b9150610d3982610cf8565b602082019050919050565b60006020820190508181036000830152610d5d81610d21565b9050919050565b6000819050919050565b6000610d89610d84610d7f8461077e565b610d64565b61077e565b9050919050565b6000610d9b82610d6e565b9050919050565b6000610dad82610d90565b9050919050565b610dbd81610da2565b82525050565b6000606082019050610dd860008301866107b0565b610de56020830185610db4565b610df26040830184610754565b949350505050565b7f4661696c656420746f207472616e736665722066726f6d2065786368616e676560008201527f20746f2075736572000000000000000000000000000000000000000000000000602082015250565b6000610e56602883610838565b9150610e6182610dfa565b604082019050919050565b60006020820190508181036000830152610e8581610e49565b9050919050565b600081905092915050565b50565b6000610ea7600083610e8c565b9150610eb282610e97565b600082019050919050565b6000610ec882610e9a565b9150819050919050565b7f4661696c656420746f2073656e642045746820746f2074686520757365720000600082015250565b6000610f08601e83610838565b9150610f1382610ed2565b602082019050919050565b60006020820190508181036000830152610f3781610efb565b905091905056fea2646970667358221220181dc3cd2bfece839fc641d118bb723e86c28a1c9e4074556ccb1033838f9a8164736f6c6343000811003360806040523480156200001157600080fd5b506040516200158b3803806200158b8339818101604052810190620000379190620002bf565b82600290816200004891906200059a565b5081600390816200005a91906200059a565b50806004819055506004546000803373ffffffffffffffffffffffffffffffffffffffff1673ffffffffffffffffffffffffffffffffffffffff1681526020019081526020016000208190555033600560006101000a81548173ffffffffffffffffffffffffffffffffffffffff021916908373ffffffffffffffffffffffffffffffffffffffff16021790555050505062000681565b6000604051905090565b600080fd5b600080fd5b600080fd5b600080fd5b6000601f19601f8301169050919050565b7f4e487b7100000000000000000000000000000000000000000000000000000000600052604160045260246000fd5b6200015a826200010f565b810181811067ffffffffffffffff821117156200017c576200017b62000120565b5b80604052505050565b600062000191620000f1565b90506200019f82826200014f565b919050565b600067ffffffffffffffff821115620001c257620001c162000120565b5b620001cd826200010f565b9050602081019050919050565b60005b83811015620001fa578082015181840152602081019050620001dd565b60008484015250505050565b60006200021d6200021784620001a4565b62000185565b9050828152602081018484840111156200023c576200023b6200010a565b5b62000249848285620001da565b509392505050565b600082601f83011262000269576200026862000105565b5b81516200027b84826020860162000206565b91505092915050565b6000819050919050565b620002998162000284565b8114620002a557600080fd5b50565b600081519050620002b9816200028e565b92915050565b600080600060608486031215620002db57620002da620000fb565b5b600084015167ffffffffffffffff811115620002fc57620002fb62000100565b5b6200030a8682870162000251565b935050602084015167ffffffffffffffff8111156200032e576200032d62000100565b5b6200033c8682870162000251565b92505060406200034f86828701620002a8565b9150509250925092565b600081519050919050565b7f4e487b7100000000000000000000000000000000000000000000000000000000600052602260045260246000fd5b60006002820490506001821680620003ac57607f821691505b602082108103620003c257620003c162000364565b5b50919050565b60008190508160005260206000209050919050565b60006020601f8301049050919050565b600082821b905092915050565b6000600883026200042c7fffffffffffffffffffffffffffffffffffffffffffffffffffffffffffffffff82620003ed565b620004388683620003ed565b95508019841693508086168417925050509392505050565b6000819050919050565b60006200047b620004756200046f8462000284565b62000450565b62000284565b9050919050565b6000819050919050565b62000497836200045a565b620004af620004a68262000482565b848454620003fa565b825550505050565b600090565b620004c6620004b7565b620004d38184846200048c565b505050565b5b81811015620004fb57620004ef600082620004bc565b600181019050620004d9565b5050565b601f8211156200054a576200051481620003c8565b6200051f84620003dd565b810160208510156200052f578190505b620005476200053e85620003dd565b830182620004d8565b50505b505050565b600082821c905092915050565b60006200056f600019846008026200054f565b1980831691505092915050565b60006200058a83836200055c565b9150826002028217905092915050565b620005a58262000359565b67ffffffffffffffff811115620005c157620005c062000120565b5b620005cd825462000393565b620005da828285620004ff565b600060209050601f831160018114620006125760008415620005fd578287015190505b6200060985826200057c565b86555062000679565b601f1984166200062286620003c8565b60005b828110156200064c5784890151825560018201915060208501945060208101905062000625565b868310156200066c578489015162000668601f8916826200055c565b8355505b6001600288020188555050505b505050505050565b610efa80620006916000396000f3fe608060405234801561001057600080fd5b506004361061009e5760003560e01c80638da5cb5b116100665780638da5cb5b1461016f57806395d89b411461018d578063a9059cbb146101ab578063b4a99a4e146101db578063dd62ed3e146101f95761009e565b806306fdde03146100a3578063095ea7b3146100c157806318160ddd146100f157806323b872dd1461010f57806370a082311461013f575b600080fd5b6100ab610229565b6040516100b89190610a1e565b60405180910390f35b6100db60048036038101906100d69190610ad9565b6102bb565b6040516100e89190610b34565b60405180910390f35b6100f96103ad565b6040516101069190610b5e565b60405180910390f35b61012960048036038101906101249190610b79565b6103b7565b6040516101369190610b34565b60405180910390f35b61015960048036038101906101549190610bcc565b610641565b6040516101669190610b5e565b60405180910390f35b610177610689565b6040516101849190610c08565b60405180910390f35b6101956106af565b6040516101a29190610a1e565b60405180910390f35b6101c560048036038101906101c09190610ad9565b610741565b6040516101d29190610b34565b60405180910390f35b6101e36108dd565b6040516101f09190610c08565b60405180910390f35b610213600480360381019061020e9190610c23565b610907565b6040516102209190610b5e565b60405180910390f35b60606002805461023890610c92565b80601f016020809104026020016040519081016040528092919081815260200182805461026490610c92565b80156102b15780601f10610286576101008083540402835291602001916102b1565b820191906000526020600020905b81548152906001019060200180831161029457829003601f168201915b5050505050905090565b600081600160003373ffffffffffffffffffffffffffffffffffffffff1673ffffffffffffffffffffffffffffffffffffffff16815260200190815260200160002060008573ffffffffffffffffffffffffffffffffffffffff1673ffffffffffffffffffffffffffffffffffffffff168152602001908152602001600020819055508273ffffffffffffffffffffffffffffffffffffffff163373ffffffffffffffffffffffffffffffffffffffff167f8c5be1e5ebec7d5bd14f71427d1e84f3dd0314c0f7b2291e5b200ac8c7c3b9258460405161039b9190610b5e565b60405180910390a36001905092915050565b6000600454905090565b60008060008573ffffffffffffffffffffffffffffffffffffffff1673ffffffffffffffffffffffffffffffffffffffff1681526020019081526020016000205482111561043a576040517f08c379a000000000000000000000000000000000000000000000000000000000815260040161043190610d35565b60405180910390fd5b600160008573ffffffffffffffffffffffffffffffffffffffff1673ffffffffffffffffffffffffffffffffffffffff16815260200190815260200160002060003373ffffffffffffffffffffffffffffffffffffffff1673ffffffffffffffffffffffffffffffffffffffff168152602001908152602001600020548211156104f9576040517f08c379a00000000000000000000000000000000000000000000000000000000081526004016104f090610da1565b60405180910390fd5b816000808673ffffffffffffffffffffffffffffffffffffffff1673ffffffffffffffffffffffffffffffffffffffff16815260200190815260200160002060008282546105479190610df0565b9250508190555081600160008673ffffffffffffffffffffffffffffffffffffffff1673ffffffffffffffffffffffffffffffffffffffff16815260200190815260200160002060003373ffffffffffffffffffffffffffffffffffffffff1673ffffffffffffffffffffffffffffffffffffffff16815260200190815260200160002060008282546105da9190610df0565b92505081905550816000808573ffffffffffffffffffffffffffffffffffffffff1673ffffffffffffffffffffffffffffffffffffffff168152602001908152602001600020600082825461062f9190610e24565b92505081905550600190509392505050565b60008060008373ffffffffffffffffffffffffffffffffffffffff1673ffffffffffffffffffffffffffffffffffffffff168152602001908152602001600020549050919050565b600560009054906101000a900473ffffffffffffffffffffffffffffffffffffffff1681565b6060600380546106be90610c92565b80601f01602080910402602001604051908101604052809291908181526020018280546106ea90610c92565b80156107375780601f1061070c57610100808354040283529160200191610737565b820191906000526020600020905b81548152906001019060200180831161071a57829003601f168201915b5050505050905090565b60008060003373ffffffffffffffffffffffffffffffffffffffff1673ffffffffffffffffffffffffffffffffffffffff168152602001908152602001600020548211156107c4576040517f08c379a00000000000000000000000000000000000000000000000000000000081526004016107bb90610ea4565b60405180910390fd5b816000803373ffffffffffffffffffffffffffffffffffffffff1673ffffffffffffffffffffffffffffffffffffffff16815260200190815260200160002060008282546108129190610df0565b92505081905550816000808573ffffffffffffffffffffffffffffffffffffffff1673ffffffffffffffffffffffffffffffffffffffff16815260200190815260200160002060008282546108679190610e24565b925050819055508273ffffffffffffffffffffffffffffffffffffffff163373ffffffffffffffffffffffffffffffffffffffff167fddf252ad1be2c89b69c2b068fc378daa952ba7f163c4a11628f55a4df523b3ef846040516108cb9190610b5e565b60405180910390a36001905092915050565b6000600560009054906101000a900473ffffffffffffffffffffffffffffffffffffffff16905090565b6000600160008473ffffffffffffffffffffffffffffffffffffffff1673ffffffffffffffffffffffffffffffffffffffff16815260200190815260200160002060008373ffffffffffffffffffffffffffffffffffffffff1673ffffffffffffffffffffffffffffffffffffffff16815260200190815260200160002054905092915050565b600081519050919050565b600082825260208201905092915050565b60005b838110156109c85780820151818401526020810190506109ad565b60008484015250505050565b6000601f19601f8301169050919050565b60006109f08261098e565b6109fa8185610999565b9350610a0a8185602086016109aa565b610a13816109d4565b840191505092915050565b60006020820190508181036000830152610a3881846109e5565b905092915050565b600080fd5b600073ffffffffffffffffffffffffffffffffffffffff82169050919050565b6000610a7082610a45565b9050919050565b610a8081610a65565b8114610a8b57600080fd5b50565b600081359050610a9d81610a77565b92915050565b6000819050919050565b610ab681610aa3565b8114610ac157600080fd5b50565b600081359050610ad381610aad565b92915050565b60008060408385031215610af057610aef610a40565b5b6000610afe85828601610a8e565b9250506020610b0f85828601610ac4565b9150509250929050565b60008115159050919050565b610b2e81610b19565b82525050565b6000602082019050610b496000830184610b25565b92915050565b610b5881610aa3565b82525050565b6000602082019050610b736000830184610b4f565b92915050565b600080600060608486031215610b9257610b91610a40565b5b6000610ba086828701610a8e565b9350506020610bb186828701610a8e565b9250506040610bc286828701610ac4565b9150509250925092565b600060208284031215610be257610be1610a40565b5b6000610bf084828501610a8e565b91505092915050565b610c0281610a65565b82525050565b6000602082019050610c1d6000830184610bf9565b92915050565b60008060408385031215610c3a57610c39610a40565b5b6000610c4885828601610a8e565b9250506020610c5985828601610a8e565b9150509250929050565b7f4e487b7100000000000000000000000000000000000000000000000000000000600052602260045260246000fd5b60006002820490506001821680610caa57607f821691505b602082108103610cbd57610cbc610c63565b5b50919050565b7f6f776e657220646f6573206e6f74206861766520656e6f75676820746f6b656e60008201527f7300000000000000000000000000000000000000000000000000000000000000602082015250565b6000610d1f602183610999565b9150610d2a82610cc3565b604082019050919050565b60006020820190508181036000830152610d4e81610d12565b9050919050565b7f6e6f7420616c6c6f776564000000000000000000000000000000000000000000600082015250565b6000610d8b600b83610999565b9150610d9682610d55565b602082019050919050565b60006020820190508181036000830152610dba81610d7e565b9050919050565b7f4e487b7100000000000000000000000000000000000000000000000000000000600052601160045260246000fd5b6000610dfb82610aa3565b9150610e0683610aa3565b9250828203905081811115610e1e57610e1d610dc1565b5b92915050565b6000610e2f82610aa3565b9150610e3a83610aa3565b9250828201905080821115610e5257610e51610dc1565b5b92915050565b7f4e6f7420456e6f75676820546f6b656e73000000000000000000000000000000600082015250565b6000610e8e601183610999565b9150610e9982610e58565b602082019050919050565b60006020820190508181036000830152610ebd81610e81565b905091905056fea26469706673582212201865e0ebb1fb987cfe82ff71ef23afe8e408f4d5dd55c090228656a6a4e7abe164736f6c63430008110033a2646970667358221220545d561ebf0d68fb9088f2365b24a73881f53ab8bf9e159d58f6514cc3ff818b64736f6c63430008110033",
  "immutableReferences": {},
  "source": "// SPDX-License-Identifier: MIT\r\npragma solidity ^0.8.11;\r\nimport \"./Token.sol\";\r\nimport \"./Exchange.sol\";\r\n\r\n\r\ncontract Factory {\r\n    Token token;\r\n    Exchange exchange;\r\n    Token[] public list_tokens;\r\n    Exchange[] public token_exchanges;\r\n\r\n    function createToken(string memory _name, string memory _symbol, uint256 _total) external {\r\n        token = new Token(_name , _symbol , _total);\r\n        list_tokens.push(token);\r\n     }\r\n\r\n    function createExchange(address _token) external {\r\n        exchange = new Exchange(_token);\r\n        token_exchanges.push(exchange);\r\n     }\r\n}",
  "sourcePath": "E:\\University\\Season 7\\Blockchain and Cryptocurrency\\Project\\back-end\\contracts\\Factory.sol",
  "compiler": {
    "name": "solc",
    "version": "0.8.17+commit.8df45f5f.Emscripten.clang"
  },
  "schemaVersion": "3.4.11",
  "updatedAt": "2022-12-14T18:03:17.561Z",
  "devdoc": {
    "kind": "dev",
    "methods": {},
    "version": 1
  },
  "userdoc": {
    "kind": "user",
    "methods": {},
    "version": 1
  }
}