{
  "contractName": "Token",
  "abi": [
    {
      "inputs": [
        {
          "internalType": "string",
          "name": "_name",
          "type": "string"
        },
        {
          "internalType": "string",
          "name": "_symbol",
          "type": "string"
        },
        {
          "internalType": "uint256",
          "name": "_total",
          "type": "uint256"
        }
      ],
      "stateMutability": "nonpayable",
      "type": "constructor"
    },
    {
      "anonymous": false,
      "inputs": [
        {
          "indexed": true,
          "internalType": "address",
          "name": "tokenOwner",
          "type": "address"
        },
        {
          "indexed": true,
          "internalType": "address",
          "name": "spender",
          "type": "address"
        },
        {
          "indexed": false,
          "internalType": "uint256",
          "name": "tokens",
          "type": "uint256"
        }
      ],
      "name": "Approval",
      "type": "event"
    },
    {
      "anonymous": false,
      "inputs": [
        {
          "indexed": true,
          "internalType": "address",
          "name": "from",
          "type": "address"
        },
        {
          "indexed": true,
          "internalType": "address",
          "name": "to",
          "type": "address"
        },
        {
          "indexed": false,
          "internalType": "uint256",
          "name": "tokens",
          "type": "uint256"
        }
      ],
      "name": "Transfer",
      "type": "event"
    },
    {
      "inputs": [],
      "name": "owner",
      "outputs": [
        {
          "internalType": "address",
          "name": "",
          "type": "address"
        }
      ],
      "stateMutability": "view",
      "type": "function",
      "constant": true
    },
    {
      "inputs": [],
      "name": "name",
      "outputs": [
        {
          "internalType": "string",
          "name": "",
          "type": "string"
        }
      ],
      "stateMutability": "view",
      "type": "function",
      "constant": true
    },
    {
      "inputs": [],
      "name": "symbol",
      "outputs": [
        {
          "internalType": "string",
          "name": "",
          "type": "string"
        }
      ],
      "stateMutability": "view",
      "type": "function",
      "constant": true
    },
    {
      "inputs": [],
      "name": "totalSupply",
      "outputs": [
        {
          "internalType": "uint256",
          "name": "",
          "type": "uint256"
        }
      ],
      "stateMutability": "view",
      "type": "function",
      "constant": true
    },
    {
      "inputs": [
        {
          "internalType": "address",
          "name": "tokenOwner",
          "type": "address"
        }
      ],
      "name": "balanceOf",
      "outputs": [
        {
          "internalType": "uint256",
          "name": "",
          "type": "uint256"
        }
      ],
      "stateMutability": "view",
      "type": "function",
      "constant": true
    },
    {
      "inputs": [],
      "name": "Owner",
      "outputs": [
        {
          "internalType": "address",
          "name": "",
          "type": "address"
        }
      ],
      "stateMutability": "view",
      "type": "function",
      "constant": true
    },
    {
      "inputs": [
        {
          "internalType": "address",
          "name": "_receiver",
          "type": "address"
        },
        {
          "internalType": "uint256",
          "name": "_amount",
          "type": "uint256"
        }
      ],
      "name": "transfer",
      "outputs": [
        {
          "internalType": "bool",
          "name": "",
          "type": "bool"
        }
      ],
      "stateMutability": "nonpayable",
      "type": "function"
    },
    {
      "inputs": [
        {
          "internalType": "address",
          "name": "_delegate",
          "type": "address"
        },
        {
          "internalType": "uint256",
          "name": "_amount",
          "type": "uint256"
        }
      ],
      "name": "approve",
      "outputs": [
        {
          "internalType": "bool",
          "name": "",
          "type": "bool"
        }
      ],
      "stateMutability": "nonpayable",
      "type": "function"
    },
    {
      "inputs": [
        {
          "internalType": "address",
          "name": "_owner",
          "type": "address"
        },
        {
          "internalType": "address",
          "name": "_delegate",
          "type": "address"
        }
      ],
      "name": "allowance",
      "outputs": [
        {
          "internalType": "uint256",
          "name": "",
          "type": "uint256"
        }
      ],
      "stateMutability": "view",
      "type": "function",
      "constant": true
    },
    {
      "inputs": [
        {
          "internalType": "address",
          "name": "_owner",
          "type": "address"
        },
        {
          "internalType": "address",
          "name": "_receiver",
          "type": "address"
        },
        {
          "internalType": "uint256",
          "name": "_amount",
          "type": "uint256"
        }
      ],
      "name": "transferFrom",
      "outputs": [
        {
          "internalType": "bool",
          "name": "",
          "type": "bool"
        }
      ],
      "stateMutability": "nonpayable",
      "type": "function"
    }
  ],
  "bytecode": "0x60806040523480156200001157600080fd5b506040516200158b3803806200158b8339818101604052810190620000379190620002bf565b82600290816200004891906200059a565b5081600390816200005a91906200059a565b50806004819055506004546000803373ffffffffffffffffffffffffffffffffffffffff1673ffffffffffffffffffffffffffffffffffffffff1681526020019081526020016000208190555033600560006101000a81548173ffffffffffffffffffffffffffffffffffffffff021916908373ffffffffffffffffffffffffffffffffffffffff16021790555050505062000681565b6000604051905090565b600080fd5b600080fd5b600080fd5b600080fd5b6000601f19601f8301169050919050565b7f4e487b7100000000000000000000000000000000000000000000000000000000600052604160045260246000fd5b6200015a826200010f565b810181811067ffffffffffffffff821117156200017c576200017b62000120565b5b80604052505050565b600062000191620000f1565b90506200019f82826200014f565b919050565b600067ffffffffffffffff821115620001c257620001c162000120565b5b620001cd826200010f565b9050602081019050919050565b60005b83811015620001fa578082015181840152602081019050620001dd565b60008484015250505050565b60006200021d6200021784620001a4565b62000185565b9050828152602081018484840111156200023c576200023b6200010a565b5b62000249848285620001da565b509392505050565b600082601f83011262000269576200026862000105565b5b81516200027b84826020860162000206565b91505092915050565b6000819050919050565b620002998162000284565b8114620002a557600080fd5b50565b600081519050620002b9816200028e565b92915050565b600080600060608486031215620002db57620002da620000fb565b5b600084015167ffffffffffffffff811115620002fc57620002fb62000100565b5b6200030a8682870162000251565b935050602084015167ffffffffffffffff8111156200032e576200032d62000100565b5b6200033c8682870162000251565b92505060406200034f86828701620002a8565b9150509250925092565b600081519050919050565b7f4e487b7100000000000000000000000000000000000000000000000000000000600052602260045260246000fd5b60006002820490506001821680620003ac57607f821691505b602082108103620003c257620003c162000364565b5b50919050565b60008190508160005260206000209050919050565b60006020601f8301049050919050565b600082821b905092915050565b6000600883026200042c7fffffffffffffffffffffffffffffffffffffffffffffffffffffffffffffffff82620003ed565b620004388683620003ed565b95508019841693508086168417925050509392505050565b6000819050919050565b60006200047b620004756200046f8462000284565b62000450565b62000284565b9050919050565b6000819050919050565b62000497836200045a565b620004af620004a68262000482565b848454620003fa565b825550505050565b600090565b620004c6620004b7565b620004d38184846200048c565b505050565b5b81811015620004fb57620004ef600082620004bc565b600181019050620004d9565b5050565b601f8211156200054a576200051481620003c8565b6200051f84620003dd565b810160208510156200052f578190505b620005476200053e85620003dd565b830182620004d8565b50505b505050565b600082821c905092915050565b60006200056f600019846008026200054f565b1980831691505092915050565b60006200058a83836200055c565b9150826002028217905092915050565b620005a58262000359565b67ffffffffffffffff811115620005c157620005c062000120565b5b620005cd825462000393565b620005da828285620004ff565b600060209050601f831160018114620006125760008415620005fd578287015190505b6200060985826200057c565b86555062000679565b601f1984166200062286620003c8565b60005b828110156200064c5784890151825560018201915060208501945060208101905062000625565b868310156200066c578489015162000668601f8916826200055c565b8355505b6001600288020188555050505b505050505050565b610efa80620006916000396000f3fe608060405234801561001057600080fd5b506004361061009e5760003560e01c80638da5cb5b116100665780638da5cb5b1461016f57806395d89b411461018d578063a9059cbb146101ab578063b4a99a4e146101db578063dd62ed3e146101f95761009e565b806306fdde03146100a3578063095ea7b3146100c157806318160ddd146100f157806323b872dd1461010f57806370a082311461013f575b600080fd5b6100ab610229565b6040516100b89190610a1e565b60405180910390f35b6100db60048036038101906100d69190610ad9565b6102bb565b6040516100e89190610b34565b60405180910390f35b6100f96103ad565b6040516101069190610b5e565b60405180910390f35b61012960048036038101906101249190610b79565b6103b7565b6040516101369190610b34565b60405180910390f35b61015960048036038101906101549190610bcc565b610641565b6040516101669190610b5e565b60405180910390f35b610177610689565b6040516101849190610c08565b60405180910390f35b6101956106af565b6040516101a29190610a1e565b60405180910390f35b6101c560048036038101906101c09190610ad9565b610741565b6040516101d29190610b34565b60405180910390f35b6101e36108dd565b6040516101f09190610c08565b60405180910390f35b610213600480360381019061020e9190610c23565b610907565b6040516102209190610b5e565b60405180910390f35b60606002805461023890610c92565b80601f016020809104026020016040519081016040528092919081815260200182805461026490610c92565b80156102b15780601f10610286576101008083540402835291602001916102b1565b820191906000526020600020905b81548152906001019060200180831161029457829003601f168201915b5050505050905090565b600081600160003373ffffffffffffffffffffffffffffffffffffffff1673ffffffffffffffffffffffffffffffffffffffff16815260200190815260200160002060008573ffffffffffffffffffffffffffffffffffffffff1673ffffffffffffffffffffffffffffffffffffffff168152602001908152602001600020819055508273ffffffffffffffffffffffffffffffffffffffff163373ffffffffffffffffffffffffffffffffffffffff167f8c5be1e5ebec7d5bd14f71427d1e84f3dd0314c0f7b2291e5b200ac8c7c3b9258460405161039b9190610b5e565b60405180910390a36001905092915050565b6000600454905090565b60008060008573ffffffffffffffffffffffffffffffffffffffff1673ffffffffffffffffffffffffffffffffffffffff1681526020019081526020016000205482111561043a576040517f08c379a000000000000000000000000000000000000000000000000000000000815260040161043190610d35565b60405180910390fd5b600160008573ffffffffffffffffffffffffffffffffffffffff1673ffffffffffffffffffffffffffffffffffffffff16815260200190815260200160002060003373ffffffffffffffffffffffffffffffffffffffff1673ffffffffffffffffffffffffffffffffffffffff168152602001908152602001600020548211156104f9576040517f08c379a00000000000000000000000000000000000000000000000000000000081526004016104f090610da1565b60405180910390fd5b816000808673ffffffffffffffffffffffffffffffffffffffff1673ffffffffffffffffffffffffffffffffffffffff16815260200190815260200160002060008282546105479190610df0565b9250508190555081600160008673ffffffffffffffffffffffffffffffffffffffff1673ffffffffffffffffffffffffffffffffffffffff16815260200190815260200160002060003373ffffffffffffffffffffffffffffffffffffffff1673ffffffffffffffffffffffffffffffffffffffff16815260200190815260200160002060008282546105da9190610df0565b92505081905550816000808573ffffffffffffffffffffffffffffffffffffffff1673ffffffffffffffffffffffffffffffffffffffff168152602001908152602001600020600082825461062f9190610e24565b92505081905550600190509392505050565b60008060008373ffffffffffffffffffffffffffffffffffffffff1673ffffffffffffffffffffffffffffffffffffffff168152602001908152602001600020549050919050565b600560009054906101000a900473ffffffffffffffffffffffffffffffffffffffff1681565b6060600380546106be90610c92565b80601f01602080910402602001604051908101604052809291908181526020018280546106ea90610c92565b80156107375780601f1061070c57610100808354040283529160200191610737565b820191906000526020600020905b81548152906001019060200180831161071a57829003601f168201915b5050505050905090565b60008060003373ffffffffffffffffffffffffffffffffffffffff1673ffffffffffffffffffffffffffffffffffffffff168152602001908152602001600020548211156107c4576040517f08c379a00000000000000000000000000000000000000000000000000000000081526004016107bb90610ea4565b60405180910390fd5b816000803373ffffffffffffffffffffffffffffffffffffffff1673ffffffffffffffffffffffffffffffffffffffff16815260200190815260200160002060008282546108129190610df0565b92505081905550816000808573ffffffffffffffffffffffffffffffffffffffff1673ffffffffffffffffffffffffffffffffffffffff16815260200190815260200160002060008282546108679190610e24565b925050819055508273ffffffffffffffffffffffffffffffffffffffff163373ffffffffffffffffffffffffffffffffffffffff167fddf252ad1be2c89b69c2b068fc378daa952ba7f163c4a11628f55a4df523b3ef846040516108cb9190610b5e565b60405180910390a36001905092915050565b6000600560009054906101000a900473ffffffffffffffffffffffffffffffffffffffff16905090565b6000600160008473ffffffffffffffffffffffffffffffffffffffff1673ffffffffffffffffffffffffffffffffffffffff16815260200190815260200160002060008373ffffffffffffffffffffffffffffffffffffffff1673ffffffffffffffffffffffffffffffffffffffff16815260200190815260200160002054905092915050565b600081519050919050565b600082825260208201905092915050565b60005b838110156109c85780820151818401526020810190506109ad565b60008484015250505050565b6000601f19601f8301169050919050565b60006109f08261098e565b6109fa8185610999565b9350610a0a8185602086016109aa565b610a13816109d4565b840191505092915050565b60006020820190508181036000830152610a3881846109e5565b905092915050565b600080fd5b600073ffffffffffffffffffffffffffffffffffffffff82169050919050565b6000610a7082610a45565b9050919050565b610a8081610a65565b8114610a8b57600080fd5b50565b600081359050610a9d81610a77565b92915050565b6000819050919050565b610ab681610aa3565b8114610ac157600080fd5b50565b600081359050610ad381610aad565b92915050565b60008060408385031215610af057610aef610a40565b5b6000610afe85828601610a8e565b9250506020610b0f85828601610ac4565b9150509250929050565b60008115159050919050565b610b2e81610b19565b82525050565b6000602082019050610b496000830184610b25565b92915050565b610b5881610aa3565b82525050565b6000602082019050610b736000830184610b4f565b92915050565b600080600060608486031215610b9257610b91610a40565b5b6000610ba086828701610a8e565b9350506020610bb186828701610a8e565b9250506040610bc286828701610ac4565b9150509250925092565b600060208284031215610be257610be1610a40565b5b6000610bf084828501610a8e565b91505092915050565b610c0281610a65565b82525050565b6000602082019050610c1d6000830184610bf9565b92915050565b60008060408385031215610c3a57610c39610a40565b5b6000610c4885828601610a8e565b9250506020610c5985828601610a8e565b9150509250929050565b7f4e487b7100000000000000000000000000000000000000000000000000000000600052602260045260246000fd5b60006002820490506001821680610caa57607f821691505b602082108103610cbd57610cbc610c63565b5b50919050565b7f6f776e657220646f6573206e6f74206861766520656e6f75676820746f6b656e60008201527f7300000000000000000000000000000000000000000000000000000000000000602082015250565b6000610d1f602183610999565b9150610d2a82610cc3565b604082019050919050565b60006020820190508181036000830152610d4e81610d12565b9050919050565b7f6e6f7420616c6c6f776564000000000000000000000000000000000000000000600082015250565b6000610d8b600b83610999565b9150610d9682610d55565b602082019050919050565b60006020820190508181036000830152610dba81610d7e565b9050919050565b7f4e487b7100000000000000000000000000000000000000000000000000000000600052601160045260246000fd5b6000610dfb82610aa3565b9150610e0683610aa3565b9250828203905081811115610e1e57610e1d610dc1565b5b92915050565b6000610e2f82610aa3565b9150610e3a83610aa3565b9250828201905080821115610e5257610e51610dc1565b5b92915050565b7f4e6f7420456e6f75676820546f6b656e73000000000000000000000000000000600082015250565b6000610e8e601183610999565b9150610e9982610e58565b602082019050919050565b60006020820190508181036000830152610ebd81610e81565b905091905056fea26469706673582212201865e0ebb1fb987cfe82ff71ef23afe8e408f4d5dd55c090228656a6a4e7abe164736f6c63430008110033",
  "immutableReferences": {},
  "source": "// SPDX-License-Identifier: MIT\r\npragma solidity ^0.8.11;\r\n \r\ncontract Token {\r\n   mapping(address => uint256) balances;\r\n   mapping(address => mapping (address => uint256)) allowed;\r\n   string name_;\r\n   string symbol_;\r\n   uint256 totalSupply_;\r\n   address public owner;\r\n\r\n   event Transfer(address indexed from, address indexed to, uint tokens);\r\n   event Approval(address indexed tokenOwner, address indexed spender, uint tokens);\r\n   \r\n   constructor(string memory _name, string memory _symbol, uint256 _total) {\r\n      name_ = _name;\r\n      symbol_ = _symbol;\r\n      totalSupply_ = _total;\r\n      balances[msg.sender] = totalSupply_;\r\n      owner = msg.sender;\r\n   }\r\n   \r\n   function name() public view returns (string memory) {\r\n      return name_;\r\n   }\r\n\r\n   function symbol() public view returns (string memory) {\r\n      return symbol_;\r\n   }\r\n\r\n   function totalSupply() public view returns (uint256) {\r\n      return totalSupply_;\r\n   }\r\n\r\n   function balanceOf(address tokenOwner) external view returns (uint) {\r\n      return balances[tokenOwner];\r\n   }\r\n\r\n   function Owner() public view returns (address) {\r\n      return owner;\r\n   }\r\n\r\n   function transfer(address _receiver, uint _amount) public returns (bool) {\r\n      require(_amount <= balances[msg.sender] , 'Not Enough Tokens');\r\n      balances[msg.sender] -= _amount;\r\n      balances[_receiver] += _amount;\r\n      emit Transfer(msg.sender, _receiver, _amount);\r\n      return true;\r\n   }\r\n\r\n   function approve(address _delegate, uint _amount) public returns (bool) {\r\n      allowed[msg.sender][_delegate] = _amount;\r\n      emit Approval(msg.sender, _delegate, _amount);\r\n      return true;\r\n   }\r\n\r\n   function allowance(address _owner, address _delegate) public view returns (uint) {\r\n      return allowed[_owner][_delegate];\r\n   }\r\n\r\n   // This function would be Called by a delegated third party\r\n   function transferFrom(address _owner, address _receiver, uint _amount) public returns (bool) {\r\n      require(_amount <= balances[_owner] , 'owner does not have enough tokens');   \r\n      require(_amount <= allowed[_owner][msg.sender] , 'not allowed');\r\n      balances[_owner] -= _amount;\r\n      allowed[_owner][msg.sender] -= _amount;\r\n      balances[_receiver] += _amount;\r\n      return true;\r\n   }\r\n\r\n}",
  "sourcePath": "E:\\University\\Season 7\\Blockchain and Cryptocurrency\\Project\\back-end\\contracts\\Token.sol",
  "compiler": {
    "name": "solc",
    "version": "0.8.17+commit.8df45f5f.Emscripten.clang"
  },
  "schemaVersion": "3.4.11",
  "updatedAt": "2022-12-14T18:03:31.834Z",
  "networkType": "ethereum",
  "devdoc": {
    "kind": "dev",
    "methods": {},
    "version": 1
  },
  "userdoc": {
    "kind": "user",
    "methods": {},
    "version": 1
  }
}